:020000040800F2
:1000000000500020DD0B0008450B00084B0B0008DA
:10001000510B0008570B00085D0B000800000000A2
:10002000000000000000000000000000630B00085A
:100030006F0B0008000000007B0B0008870B000816
:10004000250C0008250C0008250C0008250C0008CC
:10005000250C0008250C0008250C0008250C0008BC
:10006000250C0008250C0008250C0008250C0008AC
:10007000250C0008250C0008250C0008250C00089C
:10008000250C0008250C0008250C0008950B00081D
:10009000A90B0008250C0008250C0008250C0008F9
:1000A000250C0008250C0008250C0008250C00086C
:1000B000BD0B0008250C0008250C0008250C0008C5
:1000C000250C0008250C0008250C0008250C00084C
:1000D000250C0008250C0008250C0008250C00083C
:1000E000250C0008250C0008250C00080000000065
:1000F0000000000000000000000000000000000000
:0400000508000BDD07
:00000001FF
